:020000040800F2
:10000000000003206D1B0008791600087F16000809
:10001000851600088B1600089116000800000000E5
:10002000000000000000000000000000971600081B
:10003000A516000800000000B3160008C11600084D
:10004000BD1B0008BD1B0008BD1B0008BD1B000830
:10005000BD1B0008BD1B0008BD1B0008BD1B000820
:10006000BD1B0008BD1B0008BD1B0008BD1B000810
:10007000BD1B0008BD1B0008BD1B0008BD1B000800
:10008000BD1B0008BD1B0008BD1B0008BD1B0008F0
:10009000BD1B0008BD1B0008BD1B0008BD1B0008E0
:1000A000BD1B0008BD1B0008BD1B0008BD1B0008D0
:1000B000BD1B0008BD1B0008BD1B0008BD1B0008C0
:1000C000BD1B0008BD1B0008BD1B0008BD1B0008B0
:1000D000BD1B0008BD1B0008BD1B0008BD1B0008A0
:1000E000BD1B0008BD1B0008BD1B0008BD1B000890
:1000F000BD1B0008BD1B0008BD1B0008BD1B000880
:10010000BD1B0008BD1B0008BD1B0008BD1B00086F
:10011000BD1B0008BD1B0008BD1B0008BD1B00085F
:10012000BD1B0008BD1B0008BD1B0008BD1B00084F
:10013000BD1B0008BD1B0008BD1B0008BD1B00083F
:10014000BD1B0008BD1B0008BD1B0008BD1B00082F
:10015000BD1B0008BD1B0008BD1B0008BD1B00081F
:10016000BD1B0008BD1B0008BD1B0008BD1B00080F
:10017000BD1B0008BD1B0008BD1B000800000000DF
:10018000BD1B0008BD1B0008BD1B0008BD1B0008EF
:10019000BD1B0008BD1B0008BD1B0008BD1B0008DF
:0C01A000BD1B0008BD1B0008BD1B0008B3
:1001B00010B5054C237833B9044B13B10448AFF3A1
:1001C00000800123237010BD040200200000000005
:1001D000886E000808B5034B1BB103490348AFF311
:1001E000008008BD0000000008020020886E0008A2
:1001F000034613F8012B002AFBD1181A0138704767
:1002000001F0FF01102A2BDB10F0070F08D010F8C7
:10021000013B013A8B422DD010F0070F42B3F6D1CB
:10022000F0B441EA012141EA014122F007047FF0E4
:1002300000070023F0E80256083C85EA010586EA3B
:10024000010685FA47F5A3FA87F586FA47F6A5FA77
:1002500087F68EB9EED1F0BC01F0FF0102F0070283
:1002600032B110F8013B013A83EA010313B1F8D12E
:100270000020704701387047002D06BF354603380F
:10028000073815F0010F07D1013015F4807F02BF48
:10029000013015F4C03F0130F0BC0138704700BF99
:1002A00081F0004102E000BF83F0004330B54FEA27
:1002B00041044FEA430594EA050F08BF90EA020F94
:1002C0001FBF54EA000C55EA020C7FEA645C7FEA27
:1002D000655C00F0E2804FEA5454D4EB5555B8BF4A
:1002E0006D420CDD2C4480EA020281EA030382EABB
:1002F000000083EA010180EA020281EA0303362D4D
:1003000088BF30BD11F0004F4FEA01314FF4801C1F
:100310004CEA113102D0404261EB410113F0004F31
:100320004FEA03334CEA133302D0524263EB4303E8
:1003300094EA050F00F0A780A4F10104D5F1200E86
:100340000DDB02FA0EFC22FA05F2801841F10001E1
:1003500003FA0EF2801843FA05F359410EE0A5F1B5
:1003600020050EF1200E012A03FA0EFC28BF4CF0E6
:10037000020C43FA05F3C01851EBE37101F000459C
:1003800007D54FF0000EDCF1000C7EEB00006EEBA9
:100390000101B1F5801F1BD3B1F5001F0CD3490833
:1003A0005FEA30004FEA3C0C04F101044FEA44528A
:1003B00012F5800F80F09A80BCF1004F08BF5FEA11
:1003C000500C50F1000041EB045141EA050130BDF1
:1003D0005FEA4C0C404141EB0101013C28BFB1F503
:1003E000801FE9D291F0000F04BF01460020B1FA4E
:1003F00081F308BF2033A3F10B03B3F120020CDA21
:100400000C3208DD02F1140CC2F10C0201FA0CF0FE
:1004100021FA02F10CE002F11402D8BFC2F1200C63
:1004200001FA02F120FA0CFCDCBF41EA0C01904019
:10043000E41AA2BF01EB0451294330BD6FEA040462
:100440001F3C1CDA0C340EDC04F11404C4F120024D
:1004500020FA04F001FA02F340EA030021FA04F35F
:1004600045EA030130BDC4F10C04C4F1200220FAB6
:1004700002F001FA04F340EA0300294630BD21FAF4
:1004800004F0294630BD94F0000F83F4801306BFBA
:1004900081F480110134013D4EE77FEA645C18BFAE
:1004A0007FEA655C29D094EA050F08BF90EA020F45
:1004B00005D054EA000C04BF1946104630BD91EA3D
:1004C000030F1EBF0021002030BD5FEA545C05D140
:1004D0004000494128BF41F0004130BD14F580047F
:1004E0003CBF01F5801130BD01F0004545F0FE41F3
:1004F00041F470014FF0000030BD7FEA645C1ABF28
:10050000194610467FEA655C1CBF0B46024650EA5E
:10051000013406BF52EA033591EA030F41F400218A
:1005200030BD00BF90F0000F04BF0021704730B510
:100530004FF4806404F132044FF000054FF00001E5
:1005400050E700BF90F0000F04BF0021704730B5A6
:100550004FF4806404F1320410F0004548BF40427B
:100560004FF000013EE700BF42004FEAE2014FEAD0
:1005700031014FEA02701FBF12F07F4393F07F4FAB
:1005800081F06051704732F07F4208BF704793F0AE
:100590007F4F04BF41F40021704730B54FF46074C1
:1005A00001F0004521F000411CE700BF50EA0102C4
:1005B00008BF704730B54FF000050AE050EA01026D
:1005C00008BF704730B511F0004502D5404261EBDD
:1005D00041014FF4806404F132045FEA915C3FF41E
:1005E000D8AE4FF003025FEADC0C18BF03325FEABB
:1005F000DC0C18BF033202EBDC02C2F1200300FA6C
:1006000003FC20FA02F001FA03FE40EA0E0021FA90
:1006100002F11444BDE600BF70B54FF0FF0C4CF47E
:10062000E06C1CEA11541DBF1CEA135594EA0C0F30
:1006300095EA0C0F00F0DEF82C4481EA030621EA6B
:100640004C5123EA4C5350EA013518BF52EA0335A6
:1006500041F4801143F4801338D0A0FB02CE4FF058
:100660000005E1FB02E506F00042E0FB03E54FF088
:100670000006E1FB03569CF0000F18BF4EF0010E80
:10068000A4F1FF04B6F5007F64F5407404D25FEA7C
:100690004E0E6D4146EB060642EAC62141EA55512F
:1006A0004FEAC52040EA5E504FEACE2EB4F1FD0C71
:1006B00088BFBCF5E06F1ED8BEF1004F08BF5FEAEF
:1006C000500E50F1000041EB045170BD06F00046A1
:1006D00046EA010140EA020081EA0301B4EB5C044E
:1006E000C2BFD4EB0C0541EA045170BD41F4801146
:1006F0004FF0000E013C00F3AB8014F1360FDEBF6B
:10070000002001F0004170BDC4F10004203C35DA46
:100710000C341BDC04F11404C4F1200500FA05F3C9
:1007200020FA04F001FA05F240EA020001F000426A
:1007300021F0004110EBD37021FA04F642EB0601E0
:100740005EEA430E08BF20EAD37070BDC4F10C040A
:10075000C4F1200500FA04F320FA05F001FA04F2CE
:1007600040EA020001F0004110EBD37041F10001BA
:100770005EEA430E08BF20EAD37070BDC4F12005C5
:1007800000FA05F24EEA020E20FA04F301FA05F22D
:1007900043EA020321FA04F001F0004121FA04F2D5
:1007A00020EA020000EBD3705EEA430E08BF20EAA5
:1007B000D37070BD94F0000F0FD101F000464000DF
:1007C00041EB010111F4801F08BF013CF7D041EA61
:1007D000060195F0000F18BF704703F00046520065
:1007E00043EB030313F4801F08BF013DF7D043EA36
:1007F0000603704794EA0C0F0CEA135518BF95EAEC
:100800000C0F0CD050EA410618BF52EA4306D1D172
:1008100081EA030101F000414FF0000070BD50EA91
:10082000410606BF1046194652EA430619D094EA1B
:100830000C0F02D150EA013613D195EA0C0F05D105
:1008400052EA03361CBF104619460AD181EA030159
:1008500001F0004141F0FE4141F470014FF0000011
:1008600070BD41F0FE4141F4780170BD70B54FF0AC
:10087000FF0C4CF4E06C1CEA11541DBF1CEA13552C
:1008800094EA0C0F95EA0C0F00F0A7F8A4EB05040E
:1008900081EA030E52EA03354FEA013100F0888005
:1008A0004FEA03334FF0805545EA131343EA1263CE
:1008B0004FEA022245EA111545EA10654FEA002683
:1008C0000EF000419D4208BF964244F1FD0404F53C
:1008D000407402D25B084FEA3202B61A65EB030598
:1008E0005B084FEA32024FF480104FF4002CB6EB55
:1008F000020E75EB030E22BFB61A754640EA0C00D5
:100900005B084FEA3202B6EB020E75EB030E22BF14
:10091000B61A754640EA5C005B084FEA3202B6EB55
:10092000020E75EB030E22BFB61A754640EA9C0014
:100930005B084FEA3202B6EB020E75EB030E22BFE4
:10094000B61A754640EADC0055EA060E18D04FEAA2
:10095000051545EA16754FEA06164FEAC30343EA42
:1009600052734FEAC2025FEA1C1CC0D111F4801F0F
:100970000BD141EA00014FF000004FF0004CB6E708
:1009800011F4801F04BF01430020B4F1FD0C88BFA7
:10099000BCF5E06F3FF6AFAEB5EB030C04BFB6EBB2
:1009A000020C5FEA500C50F1000041EB045170BDA5
:1009B0000EF0004E4EEA113114EB5C04C2BFD4EBD2
:1009C0000C0541EA045170BD41F480114FF0000E56
:1009D000013C90E645EA060E8DE60CEA135594EAD2
:1009E0000C0F08BF95EA0C0F3FF43BAF94EA0C0FD5
:1009F0000AD150EA01347FF434AF95EA0C0F7FF44A
:100A000025AF104619462CE795EA0C0F06D152EA9D
:100A100003353FF4FDAE1046194622E750EA410681
:100A200018BF52EA43067FF4C5AE50EA41047FF492
:100A30000DAF52EA43057FF4EBAE12E74FF0FF3CF7
:100A400006E000BF4FF0010C02E000BF4FF0010CC8
:100A50004DF804CD4FEA410C7FEA6C5C4FEA430C41
:100A600018BF7FEA6C5C1BD001B050EA410C0CBF90
:100A700052EA430C91EA030F02BF90EA020F0020F2
:100A8000704710F1000F91EA030F58BF994208BF59
:100A900090422CBFD8176FEAE37040F00100704716
:100AA0004FEA410C7FEA6C5C02D150EA013C07D16D
:100AB0004FEA430C7FEA6C5CD6D152EA033CD3D0B8
:100AC0005DF8040B704700BF8446104662468C46B2
:100AD0001946634600E000BF01B5FFF7B7FF0028E5
:100AE00048BF10F1000F01BD4DF808EDFFF7F4FF0E
:100AF0000CBF012000205DF808FB00BF4DF808ED99
:100B0000FFF7EAFF34BF012000205DF808FB00BFBB
:100B10004DF808EDFFF7E0FF94BF012000205DF8DD
:100B200008FB00BF4DF808EDFFF7CEFF94BF012092
:100B300000205DF808FB00BF4DF808EDFFF7C4FF8B
:100B400034BF012000205DF808FB00BF4FEA410CD4
:100B50007FEA6C5C02D150EA013C0AD14FEA430CB7
:100B60007FEA6C5C02D152EA033C02D14FF00000F4
:100B700070474FF0010070474FEA410212F5001232
:100B800015D211D56FF47873B3EB625212D94FEAD4
:100B9000C12343F0004343EA505311F0004F23FABE
:100BA00002F018BF404270474FF00000704750EA13
:100BB000013005D111F0004008BF6FF000407047D0
:100BC0004FF00000704700BF7BB972B90029BEBF6B
:100BD00000204FF0004106E008BF00281CBF6FF066
:100BE00000414FF0FF3000F0BFB9ADF1080C6DE9E6
:100BF00004CE002909DB002B1ADB00F04DF8DDF8EC
:100C000004E0DDE9022304B07047404261EB41019A
:100C1000002B1BDB00F040F8DDF804E0DDE90223E7
:100C200004B0404261EB4101524263EB4303704721
:100C3000524263EB430300F02FF8DDF804E0DDE9F6
:100C4000022304B0404261EB41017047524263EB22
:100C5000430300F021F8DDF804E0DDE9022304B0ED
:100C6000524263EB4303704753B94AB9002908BFA6
:100C700000281CBF4FF0FF314FF0FF3000F074B977
:100C8000ADF1080C6DE904CE00F006F8DDF804E0E3
:100C9000DDE9022304B070472DE9F047089D0446C2
:100CA0008E46002B4DD18A42944669D9B2FA82F21F
:100CB00052B101FA02F3C2F1200120FA01F10CFA5B
:100CC00002FC41EA030E94404FEA1C48210CBEFB93
:100CD000F8F61FFA8CF708FB16E341EA034306FB1C
:100CE00007F199420AD91CEB030306F1FF3080F0AB
:100CF0001F81994240F21C81023E63445B1AA4B2F8
:100D0000B3FBF8F008FB103344EA034400FB07F799
:100D1000A7420AD91CEB040400F1FF3380F00A81DA
:100D2000A74240F207816444023840EA0640E41BCF
:100D300000261DB1D4400023C5E900433146BDE87B
:100D4000F0878B4209D9002D00F0EF800026C5E91D
:100D5000000130463146BDE8F087B3FA83F6002E35
:100D60004AD18B4202D3824200F2F980841A61EBAD
:100D7000030301209E46002DE0D0C5E9004EDDE7CB
:100D800002B9FFDEB2FA82F2002A40F09280A1EBB3
:100D90000C014FEA1C471FFA8CFE0126200CB1FB08
:100DA000F7F307FB131140EA01410EFB03F0884201
:100DB00008D91CEB010103F1FF3802D2884200F28E
:100DC000CB804346091AA4B2B1FBF7F007FB101120
:100DD00044EA01440EFB00FEA64508D91CEB0404BE
:100DE00000F1FF3102D2A64500F2BB800846A4EB19
:100DF0000E0440EA03409CE7C6F12007B34022FA04
:100E000007FC4CEA030C20FA07F401FA06F31C4332
:100E1000F9404FEA1C4900FA06F3B1FBF9F8200C3F
:100E20001FFA8CFE09FB181140EA014108FB0EF085
:100E3000884202FA06F20BD91CEB010108F1FF3AD5
:100E400080F08880884240F28580A8F102086144E1
:100E5000091AA4B2B1FBF9F009FB101144EA0141EF
:100E600000FB0EFE8E4508D91CEB010100F1FF349A
:100E70006CD28E456AD90238614440EA0840A0FB32
:100E80000294A1EB0E01A142C846A64656D353D008
:100E90005DB1B3EB080261EB0E0101FA07F722FA2C
:100EA00006F3F1401F43C5E9007100263146BDE855
:100EB000F087C2F12003D8400CFA02FC21FA03F3B8
:100EC000914001434FEA1C471FFA8CFEB3FBF7F039
:100ED00007FB10360B0C43EA064300FB0EF69E425E
:100EE00004FA02F408D91CEB030300F1FF382FD2F7
:100EF0009E422DD9023863449B1B89B2B3FBF7F69F
:100F000007FB163341EA034106FB0EF38B4208D977
:100F10001CEB010106F1FF3816D28B4214D9023EB8
:100F20006144C91A46EA004638E72E46284605E7D6
:100F30000646E3E61846F8E64B45A9D2B9EB0208A7
:100F400064EB0C0E0138A3E74646EAE7204694E737
:100F50004046D1E7D0467BE7023B614432E730466A
:100F600009E76444023842E7704700BF80B584B0A7
:100F700000AF3B4600221A605A609A60DA601A4B52
:100F80001A4A1A60184B4FF480325A60164B4FF0D1
:100F900080729A60144B01221A61134B00221A7658
:100FA000114B002283F820200F4B0022DA620E4BF7
:100FB0000F4A9A620C4B0022DA600B4B0122DA6175
:100FC000094B002283F83020074B01225A61064862
:100FD00001F0AAF90346002B01D000F0E1FA00BFAE
:100FE0001037BD4680BD00BF200200200020014018
:100FF0000100000F80B58AB000AF786007F11403DC
:1010000000221A605A609A60DA601A617B681B6875
:10101000174A934227D100233B61164B5B6C154A5C
:1010200043F480735364134B5B6C03F480733B6134
:101030003B690023FB600F4B1B6B0E4A43F001031F
:1010400013630C4B1B6B03F00103FB60FB68012374
:101050007B610323BB610023FB6107F11403194685
:10106000054801F06FFC00BF2837BD4680BD00BFBA
:1010700000200140003802400000024080B582B0EC
:1010800000AF3B4600221A605A60144B144A1A60A3
:10109000124801F06EFB0346002B01D000F080FAED
:1010A00000233B6000237B603B46002219460B482F
:1010B00001F0F8FB0346002B01D000F071FA00218B
:1010C000064801F078FB002300220021034801F0CC
:1010D000C4FB00BF0837BD4680BD00BF68020020CA
:1010E0000074004080B58AB000AF786007F1140347
:1010F00000221A605A609A60DA601A617B681B6885
:10110000174A934227D100233B61164B1B6C154AAB
:1011100043F000531364134B1B6C03F000533B610B
:101120003B690023FB600F4B1B6B0E4A43F001032E
:1011300013630C4B1B6B03F00103FB60FB68102374
:101140007B610323BB610023FB6107F11403194694
:10115000054801F0F7FB00BF2837BD4680BD00BF42
:1011600000740040003802400000024080B58CB09E
:1011700000AF07F11C0300221A605A609A60DA601F
:101180001A610023BB616D4B1B6B6C4A43F0040377
:1011900013636A4B1B6B03F00403BB61BB69002341
:1011A0007B61664B1B6B654A43F080031363634BA3
:1011B0001B6B03F080037B617B6900233B615F4B0A
:1011C0001B6B5E4A43F0010313635C4B1B6B03F024
:1011D00001033B613B690023FB60584B1B6B574A83
:1011E00043F002031363554B1B6B03F00203FB60D8
:1011F000FB680023BB60514B1B6B504A43F0080354
:1012000013634E4B1B6B03F00803BB60BB680023EA
:101210007B604A4B1B6B494A43F040031363474BC7
:101220001B6B03F040037B607B68002244F281016A
:10123000434801F033FD00224021424801F02EFDD9
:101240004FF40053FB614FF488133B6200237B6231
:1012500007F11C0319463C4801F074FB3223FB6183
:1012600002233B6200237B620323BB620B23FB62EE
:1012700007F11C031946344801F064FB8623FB6127
:1012800002233B6200237B620323BB620B23FB62CE
:1012900007F11C0319462D4801F054FB44F2810369
:1012A000FB6101233B6200237B620023BB6207F1E9
:1012B0001C031946224801F045FB4FF40053FB6123
:1012C00002233B6200237B620323BB620B23FB628E
:1012D00007F11C0319461A4801F034FB4023FB6157
:1012E00001233B6200237B620023BB6207F11C03E6
:1012F0001946144801F026FB8023FB6100233B6262
:1013000000237B6207F11C0319460E4801F01AFB0B
:101310004FF42053FB6102233B6200237B620323D3
:10132000BB620B23FB6207F11C031946054801F061
:1013300009FB00BF3037BD4680BD00BF003802400A
:101340000004024000180240000802400000024071
:1013500080B5C2B000AF00F051FF00F0B7F8FFF762
:1013600005FF00F0B5FA00F079FBFFF7FFFD00F094
:1013700085FAFFF783FE0023A7F80631454800F001
:1013800015F90023A7F804314FF00003C7F8003126
:10139000414B00225A60414B1B6807EE903AF8EE31
:1013A000676A3F4B5B8907EE903AB8EE677AC6EE04
:1013B000877AC7ED407A394B1B680133374A13608F
:1013C000384B1B8807EE903AB8EEE77AD7ED407AB3
:1013D00067EE277A77EEA77A9FED337A67EE877A02
:1013E000B0EE670A00F0ECFBF0EE407A9FED2F7A4A
:1013F00067EE877A9FED2D7A77EE877AFCEEE77AB3
:1014000017EE903AA7F80431B7F804311946284886
:1014100000F0F3F8B7F806310133A7F80631204B96
:101420001B89B7F806219A4223D10121214800F0F7
:10143000D5F81B4B1B89194638461F4B1F4A00F035
:1014400029FD174B1B89194638461D4B1D4A00F0D4
:10145000A8FD134B1B8919463B461B4A184600F052
:1014600027FE0F4B5B6801330D4A53600023A7F83A
:1014700006314FF480410F4800F0B0F800BF064B32
:101480005B68074A52891146024A92FBF1F2934285
:10149000F5D37DE7007A030A001000E07C0200200B
:1014A0000000002020000020DB0F49400000004524
:1014B00068020020000402400C00002014000020FC
:1014C00010000020160000201800002080B594B005
:1014D00000AF07F1200330220021184602F0B4FFCC
:1014E00007F10C0300221A605A609A60DA601A61F0
:1014F0000023BB60284B1B6C274A43F080531364C6
:10150000254B1B6C03F08053BB60BB6800237B60E2
:10151000224B1B68214A43F4404313601F4B1B6856
:1015200003F440437B607B6801233B624FF4A023BC
:101530007B620223BB634FF48003FB6304233B64A1
:10154000A8237B640223BB640723FB6407F1200309
:10155000184601F0F3FC0346002B01D000F020F800
:101560000F23FB6002233B6100237B614FF4A053F8
:10157000BB614FF48053FB6107F10C030521184652
:1015800001F054FF0346002B01D000F009F800BF22
:101590005037BD4680BD00BF00380240007000409B
:1015A00080B400AF72B600BFFEE7000080B483B025
:1015B00000AF7860074A7B681360074B1B68064AD8
:1015C00043F001031360012318460C37BD465DF854
:1015D000047B704724000020001000E080B582B03A
:1015E00000AF78600B467B807B881946786801F0F5
:1015F0006EFB00BF0837BD4680BD80B582B000AF2E
:1016000078600B467B807B88B3F5805F02D94FF40E
:1016100080537B807B8800220021786801F01DF9CF
:1016200000BF0837BD4680BD80B483B000AF002343
:101630007B60104B5B6C0F4A43F4804353640D4B4B
:101640005B6C03F480437B607B6800233B60094B49
:101650001B6C084A43F080531364064B1B6C03F069
:1016600080533B603B6800BF0C37BD465DF8047B90
:10167000704700BF0038024080B400AFFEE780B47E
:1016800000AFFEE780B400AFFEE780B400AFFEE736
:1016900080B400AFFEE780B400AF00BFBD465DF888
:1016A000047B704780B400AF00BFBD465DF8047B8B
:1016B000704780B400AF00BFBD465DF8047B704743
:1016C00080B500AF00F0ECFD00BF80BD80B400AF7E
:1016D00001231846BD465DF8047B704780B582B093
:1016E00000AF7860396002F085FE034616221A606A
:1016F0004FF0FF3318460837BD4680BD80B582B035
:1017000000AF78604FF0FF317868FFF7E7FFFEE742
:1017100080B586B000AFF860B9607A6000237B6165
:101720000AE0AFF300800146BB685A1CBA60CAB237
:101730001A707B6901337B617A697B689A42F0DBBE
:101740007B6818461837BD4680BD80B586B000AFAF
:10175000F860B9607A6000237B6109E0BB685A1CBD
:10176000BA601B781846AFF300807B6901337B6158
:101770007A697B689A42F1DB7B6818461837BD4668
:1017800080BD80B483B000AF78604FF0FF3318465F
:101790000C37BD465DF8047B704780B483B000AF62
:1017A000786039603B684FF400525A600023184655
:1017B0000C37BD465DF8047B704780B483B000AF42
:1017C0007860012318460C37BD465DF8047B7047EE
:1017D00080B485B000AFF860B9607A600023184625
:1017E0001437BD465DF8047B7047000080B586B0B5
:1017F00000AF7860144A154BD31A7B617B693B615B
:10180000134B1B68002B02D1114B124A1A60104B6C
:101810001A687B6813443A699A4207D202F0EAFDDB
:1018200003460C221A604FF0FF3309E0084B1B6897
:10183000FB60074B1A687B681344054A1360FB681A
:1018400018461837BD4680BD000003200004000084
:10185000800200203008002080B400AF064BD3F88F
:101860008830054A43F47003C2F8883000BFBD4693
:101870005DF8047B704700BF00ED00E080B500AF6D
:10188000114B124A1A60104B4FF461225A600E4BF2
:1018900000229A600C4B0022DA600B4B00221A6186
:1018A000094B0C225A61084B00229A61064B002218
:1018B000DA61054801F0DAFF0346002B01D0FFF79B
:1018C0006FFE00BF80BD00BF8402002000440040C6
:1018D00080B500AF114B124A1A60104B4FF4E13241
:1018E0005A600E4B00229A600C4B0022DA600B4BC0
:1018F00000221A61094B0C225A61084B00229A619E
:10190000064B0022DA61054801F0B0FF0346002BC8
:1019100001D0FFF745FE00BF80BD00BFC802002018
:101920000048004080B58CB000AF786007F11C0320
:1019300000221A605A609A60DA601A617B681B683C
:10194000414A93424AD10023BB61404B1B6C3F4A42
:1019500043F4003313643D4B1B6C03F40033BB6151
:10196000BB6900237B61394B1B6B384A43F0010391
:101970001363364B1B6B03F001037B617B69002310
:101980003B61324B1B6B314A43F0080313632F4B0F
:101990001B6B03F008033B613B690823FB610223D7
:1019A0003B6200237B620323BB620723FB6207F1D8
:1019B0001C031946264800F0C5FF2023FB610223C3
:1019C0003B6200237B620323BB620723FB6207F1B8
:1019D0001C0319461F4800F0B5FF31E07B681B6807
:1019E0001D4A93422CD10023FB60184B1B6C174AF5
:1019F00043F480231364154B1B6C03F48023FB60BA
:101A0000FB680023BB60114B1B6B104A43F00803BB
:101A100013630E4B1B6B03F00803BB60BB684FF4F2
:101A20004073FB6102233B6200237B620323BB62A2
:101A30000723FB6207F11C031946064800F082FFEA
:101A400000BF3037BD4680BD004400400038024032
:101A500000000240000C02400048004080B500AF8A
:101A6000144B4FF0A0421A60124B04225A60114BE3
:101A70000222DA600F4B00221A610E4B02229A6199
:101A80000C4B0122DA610B4B00221A62094B002237
:101A90005A62084B0122DA62064B00221A6305489B
:101AA00001F02FF90346002B01D0FFF779FD00BFAD
:101AB00080BD00BF0C03002080B58AB000AF786005
:101AC00007F1140300221A605A609A60DA601A6102
:101AD0007B681B68B3F1A04F3FD100233B61214BD2
:101AE0001B6B204A43F0010313631E4B1B6B03F077
:101AF00001033B613B694FF4E8537B610223BB6107
:101B00000023FB6103233B620A237B6207F114037A
:101B10001946154800F016FF4FF400737B6100234F
:101B2000BB610023FB6107F1140319460E4800F066
:101B300009FF0C4B5B6B0B4A43F08003536300239C
:101B4000FB60084B5B6C074A43F480435364054BCE
:101B50005B6C03F48043FB60FB6800BF2837BD4625
:101B600080BD00BF0038024000000240DFF834D0E2
:101B70000D480E490E4A002302E0D458C4500433E5
:101B8000C4188C42F9D30B4A0B4C002301E01360BC
:101B90000432A242FBD3FFF75FFE02F031FCFFF7F5
:101BA000D7FB704700000320000000200402002043
:101BB000A47A0008040200202C080020FEE70000A0
:101BC00080B48BB000AF87ED010AD7ED017AF5EE56
:101BD000C07AF1EE10FA0AD5D7ED017A9FED3A7A84
:101BE000F4EEC77AF1EE10FA01DB7B6862E0D7ED24
:101BF000017A9FED367A67EE877AC7ED087AD7EDDE
:101C0000087AFDEEE77A17EE903A7B62D7ED017A1B
:101C1000F5EEC07AF1EE10FA02D57B6A013B7B62E9
:101C20007B6A07EE903AF8EEE77A97ED087A77EE5E
:101C3000677AC7ED087AD7ED087A9FED257A67EEC7
:101C4000877AC7ED077AD7ED077AFCEEE77A17EEC9
:101C5000903A9BB2C3F308037B837B8B07EE903AE9
:101C6000F8EE677A97ED077A77EE677AC7ED057A2F
:101C70007B8B184A9B0013441B683B617B8B0133B1
:101C8000144A9B0013441B68FB60B7EE007AD7ED43
:101C9000057A37EE677AD7ED047A27EE277AD7ED03
:101CA000056AD7ED037A66EEA77A77EE277AC7ED55
:101CB000027ABB6807EE903AB0EE670A2C37BD4651
:101CC0005DF8047B704700BFCD024CB483F9223E1F
:101CD00000000044B86E000880B489B000AF03462D
:101CE0003960FB80FB88FB83B7F91E30002B40F383
:101CF000C080B7F91E30B3FA83F3DBB29BB2113B5D
:101D00009BB27B837B8B03F001039BB2002B07D13B
:101D1000B7F91E20B7F91A3002FA03F3FB8307E084
:101D2000B7F91E20B7F91A30013B02FA03F3FB831F
:101D3000B7F91E305B103B83FB8BFB82B7F91E307B
:101D400007EE903AF8EEE77A9FED4F7A67EE877AE2
:101D5000C7ED047A3B69BB60BB68FB60FB685A1047
:101D60004A4B9B1AFB60FB68BB60BB683B61D7EDCD
:101D7000047A9FED477A67EE877AFDEEE77A17EEF1
:101D8000903ABB83B7F91C30B7F91C20B7F91C1087
:101D900001FB02F2D21312B21146B7F9182001FB6F
:101DA00002F2D21312B2C2F5405202FB03F3DB136C
:101DB0001BB29B00BB83B7F91C30B7F91C20B7F9E5
:101DC0001C1001FB02F2D21312B21146B7F918200F
:101DD00001FB02F2D21312B2C2F5405202FB03F32E
:101DE000DB131BB29B00BB83B7F91C30B7F91C2077
:101DF000B7F91C1001FB02F2D21312B21146B7F967
:101E0000182001FB02F2D21312B2C2F5405202FBBB
:101E100003F3DB131BB29B00BB83B7F91630B7F992
:101E20001C2002FB03F3DB131BB25B00BB837B8B29
:101E300003F001039BB2002B0BD1B7F91C20B7F9BB
:101E40001A30D90F0B445B101BB242FA03F3BB8369
:101E50000AE0B7F91C20B7F91A30013BD90F0B443F
:101E60005B1042FA03F3BB833B68BA8B1A800023F2
:101E700004E03B6800221A804FF0FF3318462437F5
:101E8000BD465DF8047B704700000038DF59375FBE
:101E90000000804680B48BB000AFF860B9607A6013
:101EA0003B600023BB610023FB61FB689A1CFA6066
:101EB0001B88FB84BB68013B9B083B6245E0FB68D9
:101EC0009A1CFA601B88FB82FB689A1CFA601B88CC
:101ED000BB82B7F92620B7F916309A4204DAFB8A9A
:101EE000FB84BB690133FB61B7F92620B7F91430D5
:101EF0009A4204DABB8AFB84BB690233FB61FB684C
:101F00009A1CFA601B88FB82FB689A1CFA601B888B
:101F1000BB82B7F92620B7F916309A4204DAFB8A59
:101F2000FB84BB690333FB61B7F92620B7F9143092
:101F30009A4204DABB8AFB84BB690433FB61BB6948
:101F40000433BB613B6A013B3B623B6A002BB6D169
:101F5000BB68013B03F003033B6213E0FB689A1C80
:101F6000FA601B88FB82B7F92620B7F916309A422F
:101F700005DAFB8AFB84BA683B6AD31AFB613B6AC9
:101F8000013B3B623B6A002BE8D17B68FA8C1A80EC
:101F90003B68FA691A6000BF2C37BD465DF8047BC8
:101FA000704780B48BB000AFF860B9607A603B6076
:101FB0000023BB610023FB61FB689A1CFA601B884D
:101FC000FB84BB68013B9B083B6245E0FB689A1CB5
:101FD000FA601B88FB82FB689A1CFA601B88BB8234
:101FE000B7F92620B7F916309A4204DDFB8AFB8444
:101FF000BB690133FB61B7F92620B7F914309A4267
:1020000004DDBB8AFB84BB690233FB61FB689A1C5D
:10201000FA601B88FB82FB689A1CFA601B88BB82F3
:10202000B7F92620B7F916309A4204DDFB8AFB8403
:10203000BB690333FB61B7F92620B7F914309A4224
:1020400004DDBB8AFB84BB690433FB61BB690433D9
:10205000BB613B6A013B3B623B6A002BB6D1BB686C
:10206000013B03F003033B6213E0FB689A1CFA6038
:102070001B88FB82B7F92620B7F916309A4205DD96
:10208000FB8AFB84BA683B6AD31AFB613B6A013B5B
:102090003B623B6A002BE8D17B68FA8C1A803B6874
:1020A000FA691A6000BF2C37BD465DF8047B7047A3
:1020B000B0B59EB000AFF860B9607A604FF0000232
:1020C0004FF00003C7E91C23BB689B08FB6640E098
:1020D00007F10C021368191D11601B68FB65F86D90
:1020E000F96DD7E91C2378643964C7E90E23D7E971
:1020F0000E23C7E90623BA69FB69796C386CC1FB0A
:10210000C023BA61FB61D7E90623C7E91C2307F1A5
:102110000C021368191D11601B68FB65F86DF96DE1
:10212000D7E91C23B8657965C7E91223D7E91223DB
:10213000C7E904233A697B69B96D786DC1FBC02397
:102140003A617B61D7E90423C7E91C23FB6E013B9D
:10215000FB66FB6E002BBBD1BB6803F00303FB6681
:1021600022E0FB689A1CFA601B88A7F86230B7F976
:102170006200B7F96210D7E91C2378633963C7E9B5
:102180000A23D7E90A23C7E908233A6A7B6A796BED
:10219000386BC1FBC0233A627B62D7E90823C7E9E9
:1021A0001C23FB6E013BFB66FB6E002BD9D1BB6889
:1021B00000221C46154622462B46D7E91C01FEF795
:1021C00003FD02460B46104619464FF000024FF041
:1021D0000003C20B42EA4142CB131346BB66BB6EFF
:1021E00003F30F037B667B6E1BB279681846FFF71B
:1021F00073FD00BF7837BD46B0BD000080B500AFAD
:102200000E4B1B680D4A43F4007313600B4B1B68A5
:102210000A4A43F480631360084B1B68074A43F47F
:1022200080731360032000F071FA002000F008F8BA
:10223000FFF7FAF90023184680BD00BF003C0240BA
:1022400080B582B000AF7860124B1A68124B1B78D1
:1022500019464FF47A73B3FBF1F3B2FBF3F318466C
:1022600000F07BFA0346002B01D001230EE07B68CF
:102270000F2B0AD8002279684FF0FF3000F051FA96
:10228000064A7B681360002300E0012318460837E4
:10229000BD4680BD28000020300000202C0000201A
:1022A00080B400AF064B1B781A46064B1B681344DC
:1022B000044A136000BFBD465DF8047B704700BF51
:1022C000300000201808002080B400AF034B1B68CA
:1022D0001846BD465DF8047B704700BF1808002013
:1022E00080B584B000AF7860FFF7EEFFB8607B6820
:1022F000FB60FB68B3F1FF3F05D00A4B1B781A4621
:10230000FB681344FB6000BFFFF7DEFF0246BB68BB
:10231000D31AFA689A42F7D800BF00BF1037BD46FB
:1023200080BD00BF3000002080B584B000AF786071
:102330000023FB737B68002B01D1012333E07B6812
:102340001B6C002B09D17868FEF754FE7B680022D5
:102350005A647B68002283F83C207B681B6C03F086
:102360001003002B18D17B681B6C23F4885323F0D7
:10237000020343F002027B681A64786800F018F8E0
:102380007B6800225A647B681B6C23F0030343F0D4
:1023900001027B681A6401E00123FB737B68002261
:1023A00083F83C20FB7B18461037BD4680BD0000FB
:1023B00080B485B000AF7860794BFB60FB685B68E8
:1023C00023F44032FB685A60FB685A687B685B689C
:1023D0001A43FB685A607B681B685A687B681B68F5
:1023E00022F480725A607B681B6859687B681B699D
:1023F0001A027B681B680A435A607B681B685A682C
:102400007B681B6822F040725A607B681B685968C1
:102410007B689A687B681B680A435A607B681B6804
:102420009A687B681B6822F400629A607B681B686C
:1024300099687B68DA687B681B680A439A607B68E6
:102440009B6A584A934222D07B681B689A687B68D3
:102450001B6822F070629A607B681B6899687B68D1
:102460009A6A7B681B680A439A607B681B689A6853
:102470007B681B6822F040529A607B681B689968F1
:102480007B68DA6A7B681B680A439A600FE07B68A6
:102490001B689A687B681B6822F070629A607B6890
:1024A0001B689A687B681B6822F040529A607B68C0
:1024B0001B689A687B681B6822F002029A607B683E
:1024C0001B6899687B681B7E5A007B681B680A43FF
:1024D0009A607B6893F82030002B1BD07B681B68C8
:1024E0005A687B681B6842F400625A607B681B680C
:1024F0005A687B681B6822F460425A607B681B68DC
:1025000059687B685B6A013B5A037B681B680A4316
:102510005A6007E07B681B685A687B681B6822F476
:1025200000625A607B681B68DA6A7B681B6822F469
:102530007002DA627B681B68D96A7B68DB69013BE1
:102540001A057B681B680A43DA627B681B689A6815
:102550007B681B6822F400729A607B681B6899682C
:102560007B6893F830305A027B681B680A439A6094
:102570007B681B689A687B681B6822F480629A609B
:102580007B681B6899687B685B699A027B681B683B
:102590000A439A6000BF1437BD465DF8047B70475C
:1025A000002301400100000F80B485B000AF7860C7
:1025B0007B6803F00703FB600C4BDB68BB60BA6809
:1025C0004FF6FF031340BB60FB681A02BB6813435E
:1025D00043F0BF6343F40033BB60044ABB68D3607D
:1025E00000BF1437BD465DF8047B704700ED00E086
:1025F00080B400AF044BDB681B0A03F007031846E6
:10260000BD465DF8047B704700ED00E080B483B008
:1026100000AF03463960FB7197F90730002B0ADBE6
:102620003B68DAB20C4997F907301201D2B20B4479
:1026300083F800230AE03B68DAB20849FB7903F02B
:102640000F03043B1201D2B20B441A7600BF0C37C1
:10265000BD465DF8047B704700E100E000ED00E05E
:1026600080B489B000AFF860B9607A60FB6803F0AD
:102670000703FB61FB69C3F10703042B28BF042395
:10268000BB61FB690433062B02D9FB69033B00E005
:1026900000237B614FF0FF32BB6902FA03F3DA4398
:1026A000BB681A407B699A404FF0FF317B6901FAA1
:1026B00003F3D9437B680B40134318462437BD46C8
:1026C0005DF8047B7047000080B582B000AF786091
:1026D0007B68013BB3F1807F01D301230FE00A4AFD
:1026E0007B68013B53600F214FF0FF30FFF78EFFF7
:1026F000054B00229A60044B07221A6000231846FB
:102700000837BD4680BD00BF10E000E080B582B054
:1027100000AF78607868FFF747FF00BF0837BD4615
:1027200080BD80B586B000AF0346B9607A60FB73A8
:1027300000237B61FFF75CFF78617A68B96878698C
:10274000FFF78EFF024697F90F3011461846FFF744
:102750005DFF00BF1837BD4680BD80B582B000AFB9
:1027600078607868FFF7B0FF034618460837BD4623
:1027700080BD80B582B000AF78607B68002B01D14E
:10278000012314E07B681B79DBB2002B05D17B6849
:1027900000225A717868FEF7A5FC7B6802221A7144
:1027A0007B6800221A617B6801221A710023184697
:1027B0000837BD4680BD80B483B000AF7860396013
:1027C0007B685B79012B01D1022340E07B68012209
:1027D0005A717B6802221A717B681B6819683B6812
:1027E00003F0100301229A407B681B680A431A60B9
:1027F0003B68002B0FD17B681B681B6803F03C0310
:102800003C2B1DD17B681B685A687B681B6842F0B3
:1028100001025A6014E07B681B681B6803F47012A5
:102820003B6803F010033C2101FA03F39A4207D1FD
:102830007B681B685A687B681B6842F002025A601A
:102840007B6801221A717B6800225A7100231846A6
:102850000C37BD465DF8047B704780B487B000AF8D
:10286000F860B9607A603B6000237B61FB681B689D
:102870007B61BB68002B05D17A697B681344083300
:102880007B6104E07A697B68134414337B617B6964
:102890001A463B681360002318461C37BD465DF896
:1028A000047B704780B487B000AFF860B9607A608D
:1028B000FB685B79012B01D102233CE0FB6801221C
:1028C0005A71FB6802221A71FB681B681B687B61E6
:1028D0007B6803F0100340F6FE7202FA03F3DB4359
:1028E0007A6913407B61BB681A68BB685B681343F5
:1028F0003B617B6803F010033A6902FA03F37A69DB
:1029000013437B61FB681B687A691A60FB681B686C
:1029100019687B6803F01003C02202FA03F3DA435C
:10292000FB681B680A401A60FB6801221A71FB6889
:1029300000225A71002318461C37BD465DF8047BFF
:102940007047000080B489B000AF78603960002320
:102950007B6100233B610023BB610023FB6177E1C6
:102960000122FB6902FA03F37B613B681B687A6909
:1029700013403B613A697B699A4240F066813B684B
:102980005B6803F00303012B05D03B685B6803F031
:102990000303022B30D17B689B68BB61FB695B0042
:1029A000032202FA03F3DB43BA691340BB613B68BD
:1029B000DA68FB695B0002FA03F3BA691343BB618F
:1029C0007B68BA699A607B685B68BB610122FB69BE
:1029D00002FA03F3DB43BA691340BB613B685B68EF
:1029E0001B0903F00102FB6902FA03F3BA691343FE
:1029F000BB617B68BA695A603B685B6803F003039C
:102A0000032B17D07B68DB68BB61FB695B0003228B
:102A100002FA03F3DB43BA691340BB613B689A686F
:102A2000FB695B0002FA03F3BA691343BB617B687D
:102A3000BA69DA603B685B6803F00303022B23D1B9
:102A4000FB69DA087B68083253F82230BB61FB6906
:102A500003F007039B000F2202FA03F3DB43BA697A
:102A60001340BB613B681A69FB6903F007039B00D5
:102A700002FA03F3BA691343BB61FB69DA087B68A6
:102A80000832B96943F822107B681B68BB61FB6997
:102A90005B00032202FA03F3DB43BA691340BB6114
:102AA0003B685B6803F00302FB695B0002FA03F317
:102AB000BA691343BB617B68BA691A603B685B689B
:102AC00003F44033002B00F0C0800023FB60664B12
:102AD0005B6C654A43F480435364634B5B6C03F463
:102AE0008043FB60FB68614AFB699B08023352F834
:102AF0002330BB61FB6903F003039B000F2202FA42
:102B000003F3DB43BA691340BB617B68584A9342C5
:102B100037D07B68574A934231D07B68564A9342FC
:102B20002BD07B68554A934225D07B68544A934208
:102B30001FD07B68534A934219D07B68524A934214
:102B400013D07B68514A93420DD07B68504A934220
:102B500007D07B684F4A934201D1092312E00A2330
:102B600010E008230EE007230CE006230AE005230B
:102B700008E0042306E0032304E0022302E001232B
:102B800000E00023FA6902F0030292009340BA6960
:102B90001343BB613549FB699B080233BA6941F8AD
:102BA00023203D4B9B68BB613B69DB43BA69134003
:102BB000BB613B685B6803F48013002B03D0BA69E8
:102BC0003B691343BB61344ABB699360324BDB689A
:102BD000BB613B69DB43BA691340BB613B685B681F
:102BE00003F40013002B03D0BA693B691343BB61A4
:102BF000294ABB69D360284B5B68BB613B69DB43F7
:102C0000BA691340BB613B685B6803F40033002B77
:102C100003D0BA693B691343BB611F4ABB69536068
:102C20001D4B1B68BB613B69DB43BA691340BB6149
:102C30003B685B6803F48033002B03D0BA693B69BF
:102C40001343BB61144ABB691360FB690133FB6129
:102C5000FB690F2B7FF684AE00BF00BF2437BD4653
:102C60005DF8047B704700BF003802400038014027
:102C7000000002400004024000080240000C024034
:102C8000001002400014024000180240001C0240E4
:102C90000020024000240240003C014080B483B088
:102CA00000AF78600B467B8013467B707B78002BEF
:102CB00003D07A887B689A6103E07B881A047B687A
:102CC0009A6100BF0C37BD465DF8047B704780B445
:102CD00085B000AF78600B467B807B685B69FB60EA
:102CE0007A88FB6813401A04FB68D9437B880B4041
:102CF0001A437B689A6100BF1437BD465DF8047BB8
:102D00007047F0B58FB00AAF78607B68002B01D1B7
:102D100001230FE17B681B68BB607B6893F8BD34BF
:102D2000DBB2002B06D17B68002283F8BC247868D4
:102D3000FEF7C2FE7B68032283F8BD24BB68DB6B11
:102D400003F48073002B02D17B6800221A617B6838
:102D50001B68184601F0ADF87B681B683B607E6815
:102D60006D4606F110040FCC0FC50FCC0FC594E8CB
:102D7000030085E80300331D0ECB386801F038F8F6
:102D80000346002B05D07B68022283F8BD24012373
:102D9000D0E07B681B680021184601F09BF80023F7
:102DA000FB734AE0FA7B79681346DB0013449B000F
:102DB0000B443D3301221A70FA7B79681346DB001D
:102DC00013449B000B443C33FA7B1A70FA7BFB7B69
:102DD00098B279681346DB0013449B000B444433DC
:102DE00002461A80FA7B79681346DB0013449B0085
:102DF0000B44403300221A70FA7B79681346DB00DB
:102E000013449B000B44483300221A60FA7B796814
:102E10001346DB0013449B000B444C3300221A6022
:102E2000FA7B79681346DB0013449B000B44543350
:102E300000221A60FB7B0133FB73FA7B7B685B68C3
:102E40009A42AFD30023FB7344E0FA7B79681346C0
:102E5000DB0013449B000B4403F27D2300221A7015
:102E6000FA7B79681346DB0013449B000B4403F59F
:102E70001F73FA7B1A70FA7B79681346DB001344E0
:102E80009B000B4403F5207300221A70FA7B7968CB
:102E90001346DB0013449B000B4403F5227300220E
:102EA0001A60FA7B79681346DB0013449B000B44DD
:102EB00003F5237300221A60FA7B79681346DB005E
:102EC00013449B000B4403F5257300221A60FB7B1F
:102ED0000133FB73FA7B7B685B689A42B5D37B68EE
:102EE0001B683B607E686D4606F110040FCC0FC571
:102EF0000FCC0FC594E8030085E80300331D0ECB0B
:102F0000386801F033F80346002B05D07B680222B5
:102F100083F8BD2401230DE07B68002283F838206C
:102F20007B68012283F8BD247B681B68184601F08A
:102F3000FEF9002318461437BD46F0BD80B586B0B3
:102F400000AF78607B68002B01D1012367E27B68CA
:102F50001B6803F00103002B75D0884B9B6803F0BE
:102F60000C03042B0CD0854B9B6803F00C03082B3F
:102F700012D1824B5B6803F48003B3F5800F0BD151
:102F80007E4B1B6803F40033002B5BD07B685B68CF
:102F9000002B57D1012342E27B685B68B3F5803F89
:102FA00006D1764B1B68754A43F4803313601DE0ED
:102FB0007B685B68B3F5A02F0CD1704B1B686F4A20
:102FC00043F4802313606D4B1B686C4A43F48033D9
:102FD00013600BE0694B1B68684A23F4803313606D
:102FE000664B1B68654A23F4802313607B685B682B
:102FF000002B13D0FFF768F9386108E0FFF764F998
:1030000002463B69D31A642B01D9032307E25B4BC9
:103010001B6803F40033002BF0D014E0FFF754F9E1
:10302000386108E0FFF750F902463B69D31A642B78
:1030300001D90323F3E1514B1B6803F40033002B48
:10304000F0D100E000BF7B681B6803F00203002B97
:1030500063D04A4B9B6803F00C03002B0BD0474B0B
:103060009B6803F00C03082B1CD1444B5B6803F4F2
:103070008003002B16D1414B1B6803F00203002B89
:1030800005D07B68DB68012B01D00123C7E13B4BF6
:103090001B6823F0F8027B681B69DB003749134388
:1030A0000B603AE07B68DB68002B20D0344B0122B8
:1030B0001A60FFF709F9386108E0FFF705F90246E1
:1030C0003B69D31A022B01D90323A8E12B4B1B68C0
:1030D00003F00203002BF0D0284B1B6823F0F8020A
:1030E0007B681B69DB00254913430B6015E0244B0B
:1030F00000221A60FFF7E8F8386108E0FFF7E4F80B
:1031000002463B69D31A022B01D9032387E11B4BEB
:103110001B6803F00203002BF0D17B681B6803F0EF
:103120000803002B36D07B685B69002B16D0154B4B
:1031300001221A60FFF7C8F8386108E0FFF7C4F809
:1031400002463B69D31A022B01D9032367E10B4BDB
:103150005B6F03F00203002BF0D01BE0094B002251
:103160001A60FFF7B1F838610EE0FFF7ADF80246DC
:103170003B69D31A022B07D9032350E100380240E0
:1031800000004742800E4742884B5B6F03F002030A
:10319000002BEAD17B681B6803F00403002B00F0CE
:1031A00097800023FB75814B1B6C03F08053002B31
:1031B0000FD10023BB607D4B1B6C7C4A43F08053D6
:1031C00013647A4B1B6C03F08053BB60BB68012314
:1031D000FB75774B1B6803F48073002B18D1744B7D
:1031E0001B68734A43F480731360FFF76DF838610E
:1031F00008E0FFF769F802463B69D31A022B01D9B0
:1032000003230CE16A4B1B6803F48073002BF0D09E
:103210007B689B68012B06D1644B1B6F634A43F0AC
:10322000010313671CE07B689B68052B0CD15F4B87
:103230001B6F5E4A43F0040313675C4B1B6F5B4AD2
:1032400043F0010313670BE0584B1B6F574A23F001
:1032500001031367554B1B6F544A23F00403136794
:103260007B689B68002B15D0FFF72EF838610AE0C9
:10327000FFF72AF802463B69D31A41F2883293429B
:1032800001D90323CBE0494B1B6F03F00203002B52
:10329000EED014E0FFF718F838610AE0FFF714F8F1
:1032A00002463B69D31A41F28832934201D9032383
:1032B000B5E03E4B1B6F03F00203002BEED1FB7D0C
:1032C000012B05D1394B1B6C384A23F08053136412
:1032D0007B689B69002B00F0A180344B9B6803F056
:1032E0000C03082B5CD07B689B69022B41D1314BCE
:1032F00000221A60FEF7E8FF386108E0FEF7E4FFFD
:1033000002463B69D31A022B01D9032387E0274BDE
:103310001B6803F00073002BF0D17B68DA697B68CF
:103320001B6A1A437B685B6A9B011A437B689B6A32
:103330005B08013B1B041A437B68DB6A1B061B49C5
:1033400013434B601B4B01221A60FEF7BDFF38612F
:1033500008E0FEF7B9FF02463B69D31A022B01D9F8
:1033600003235CE0114B1B6803F00073002BF0D0CB
:1033700054E0104B00221A60FEF7A6FF386108E007
:10338000FEF7A2FF02463B69D31A022B01D90323A1
:1033900045E0064B1B6803F00073002BF0D13DE0C5
:1033A0007B689B69012B07D1012338E0003802407C
:1033B00000700040600047421B4B5B68FB607B680D
:1033C0009B69012B28D0FB6803F480027B68DB69D2
:1033D0009A4221D1FB6803F03F027B681B6A9A4244
:1033E0001AD1FA6847F6C07313407A68526A92019C
:1033F000934211D1FB6803F440327B689B6A5B08FF
:10340000013B1B049A4207D1FB6803F070627B68A2
:10341000DB6A1B069A4201D0012300E00023184614
:103420001837BD4680BD00BF0038024080B584B06B
:1034300000AF786039607B68002B01D10123CCE0BC
:10344000684B1B6803F00F033A689A420CD9654B2E
:103450003A68D2B21A70634B1B6803F00F033A68E4
:103460009A4201D00123B8E07B681B6803F0020395
:10347000002B20D07B681B6803F00403002B05D0D1
:10348000594B9B68584A43F4E05393607B681B6830
:1034900003F00803002B05D0534B9B68524A43F4BA
:1034A00060439360504B9B6823F0F0027B689B68FD
:1034B0004D4913438B607B681B6803F00103002BAD
:1034C00044D07B685B68012B07D1474B1B6803F432
:1034D0000033002B19D101237FE07B685B68022B4E
:1034E00003D07B685B68032B07D13F4B1B6803F05D
:1034F0000073002B09D101236FE03B4B1B6803F0E5
:103500000203002B01D1012367E0374B9B6823F0B6
:1035100003027B685B68344913438B60FEF7D4FE7B
:10352000F8600AE0FEF7D0FE0246FB68D31A41F2CB
:103530008832934201D903234FE02B4B9B6803F061
:103540000C027B685B689B009A42EBD1254B1B68A1
:1035500003F00F033A689A420CD2224B3A68D2B277
:103560001A70204B1B6803F00F033A689A4201D08F
:10357000012332E07B681B6803F00403002B08D0B2
:10358000194B9B6823F4E0527B68DB6816491343B0
:103590008B607B681B6803F00803002B09D0124B7B
:1035A0009B6823F460427B681B69DB000E49134370
:1035B0008B6000F021F802460B4B9B681B0903F05F
:1035C0000F030A49CB5C22FA03F3094A1360094B43
:1035D0001B681846FEF734FE002318461037BD4618
:1035E00080BD00BF003C024000380240A06E0008D1
:1035F000280000202C0000202DE9B04F94B000AF2F
:1036000000237B640023FB6400233B640023BB6432
:10361000794B9B6803F00C03082B0DD0082B00F2AC
:10362000E180002B02D0042B03D0DBE0734BBB64A2
:10363000DBE0734BBB64D8E06F4B5B6803F03F0388
:103640007B646D4B5B6803F48003002B63D06A4B93
:103650005B689B090022BB63FA63BB6BC3F308037F
:103660003B6300237B63D7E90C4522462B464FF092
:1036700000004FF00001590141EAD26150010246B9
:103680000B462146511A3961294663EB01037B61E0
:103690004FF000024FF00003D7E904AB59468B010D
:1036A000514643EA916351468A015146B2EB010803
:1036B000594663EB01094FF000024FF000034FEA57
:1036C000C90343EA58734FEAC80290469946234615
:1036D00018EB0303BB602B4649EB0303FB604FF081
:1036E00000024FF00003D7E9024529464B0221466C
:1036F00043EAD15321464A02104619467B6C002208
:10370000BB62FA62D7E90A23FDF7AEFA02460B461E
:103710001346FB6458E0384B5B689B09002218464F
:103720001146C0F308033B6200237B62D7E9088996
:1037300042464B464FF000004FF00001590141EA6C
:10374000D261500102460B464146B2EB010A49469E
:1037500063EB010B4FF000024FF000034FEA8B13B5
:1037600043EA9A634FEA8A12B2EB0A0463EB0B0551
:103770004FF000024FF00003EB0043EA5473E20005
:1037800014461D464346E3183B604B4645EB030396
:103790007B604FF000024FF00003D7E90045294657
:1037A0008B02214643EA915321468A02104619466C
:1037B0007B6C0022BB61FA61D7E90623FDF754FA5E
:1037C00002460B461346FB640B4B5B681B0C03F075
:1037D000030301335B003B64FA6C3B6CB2FBF3F315
:1037E000BB6402E0054BBB6400BFBB6C184650379E
:1037F000BD46BDE8B08F00BF003802400024F40091
:1038000000127A0080B400AF034B1B681846BD4617
:103810005DF8047B704700BF2800002080B500AF32
:10382000FFF7F0FF0246054B9B689B0A03F0070376
:103830000349CB5C22FA03F3184680BD00380240EE
:10384000B06E000880B500AFFFF7DCFF0246054B05
:103850009B685B0B03F007030349CB5C22FA03F37D
:10386000184680BD00380240B06E000880B582B0B6
:1038700000AF78607B68002B01D101233FE07B68BB
:1038800093F83D30DBB2002B06D17B68002283F831
:103890003C207868FEF746F87B68242283F83D20B8
:1038A0007B681B68DA687B681B6822F40052DA6068
:1038B000786800F029F87B681B681A697B681B68C8
:1038C00022F490421A617B681B685A697B681B6806
:1038D00022F02A025A617B681B68DA687B681B68E1
:1038E00042F40052DA607B6800221A647B6820226E
:1038F00083F83D207B68202283F83E200023184671
:103900000837BD4680BD00002DE9B04FC0B000AF04
:10391000C7F8F400D7F8F4301B681B6923F4405053
:10392000D7F8F430D968D7F8F4301A6840EA0103C0
:103930001361D7F8F4309A68D7F8F4301B691A434A
:10394000D7F8F4305B691A43D7F8F430DB691343D6
:10395000C7F8F830D7F8F4301B68DB6823F4164159
:1039600021F00C01D7F8F4301A68D7F8F8300B437F
:10397000D360D7F8F4301B685B6923F44070D7F844
:10398000F4309969D7F8F4301A6840EA01035361BA
:10399000D7F8F4301A688F4B9A4205D0D7F8F43034
:1039A0001A688D4B9A4204D1FFF74CFFC7F8FC0010
:1039B00003E0FFF733FFC7F8FC00D7F8F430DB690A
:1039C000B3F5004F40F00C81D7F8FC300022C7F867
:1039D000E830C7F8EC20D7E93A4522462B46911843
:1039E000B9655B41FB65D7E91623214612EB010857
:1039F000294643EB01094FF000024FF000034FEA64
:103A0000C90343EA58734FEAC802904699462346D1
:103A100018EB0303C7F8E0302B4649EB0303C7F864
:103A2000E430D7F8F4305B680022C7F8D830C7F824
:103A3000DC20D7E936120B46DB183B65134642EB18
:103A400003037B65D7E91423D7E93801FDF70CF9A7
:103A500002460B46614BA3FB02235B091C01D7F80E
:103A6000FC300022C7F8D030C7F8D420D7E9348919
:103A700042464B469118B9645B41FB64D7E9122377
:103A8000414612EB010A494643EB010B4FF000029D
:103A90004FF000034FEACB0343EA5A734FEACA02DE
:103AA00092469B4643461AEB0303C7F8C8304B4681
:103AB0004BEB0303C7F8CC30D7F8F4305B68002237
:103AC000C7F8C030C7F8C420D7E930120B46DB185E
:103AD0003B64134642EB03037B64D7E91023D7E929
:103AE0003201FDF7C1F802460B4611463B4BA3FBE2
:103AF00001235B09642202FB03F3CB1ADB0003F111
:103B00003202364BA3FB02235B095B0003F4F8731C
:103B10001C44D7F8FC300022C7F8B830C7F8BC20E6
:103B2000D7E92E8942464B469118B9635B41FB6346
:103B3000D7E90E2341465118396349464B417B630F
:103B40004FF000024FF00003D7E90CAB5946CB0011
:103B5000514643EA51735146CA001046194603467E
:103B600042469B18C7F8B0304B460A4642EB030367
:103B7000C7F8B430D7F8F4305B680022C7F8A83033
:103B8000C7F8AC20D7E92A120B46DB18BB621346F4
:103B900042EB0303FB62D7E90A23D7E92C01FDF7C7
:103BA00063F802460B460D4BA3FB02135B0964212D
:103BB00001FB03F3D31ADB003233084AA2FB0323D1
:103BC0005B0903F00702D7F8F4301B6822449A60BF
:103BD00005E100BF00100140001401401F85EB51BA
:103BE000D7F8FC300022C7F8A030C7F8A420D7E9E6
:103BF000288942464B46911839625B417B62D7E97E
:103C0000082341465418494643EB01054FF0000292
:103C10004FF00003EB0043EA5473E20014461D46E4
:103C20004346E318C7F898304B4645EB0303C7F803
:103C30009C30D7F8F4305B680022C7F89030C7F8A2
:103C400094204FF000024FF00003D7E924452946A5
:103C50008B00214643EA917321468A00D7E9260169
:103C6000FDF702F802460B46604BA3FB02235B09FB
:103C70001C01D7F8FC300022C7F88830C7F88C2028
:103C8000D7E9228942464B469118B9615B41FB61F5
:103C9000D7E9062341465118396149464B417B61BA
:103CA0004FF000024FF00003D7E904AB5946CB00B8
:103CB000514643EA51735146CA001046194603461D
:103CC00042469B18C7F880304B460A4642EB030336
:103CD000C7F88430D7F8F4305B680022BB67FA6716
:103CE0004FF000024FF00003D7E91E8949468B00D0
:103CF000414643EA917341468A00D7E92001FCF727
:103D0000B3FF02460B46394BA3FB02135B09642148
:103D100001FB03F3D31A1B013233344AA2FB032302
:103D20005B0903F0F0031C44D7F8FC3000223B672A
:103D30007A67D7E91C8942464B469118B9605B41C6
:103D4000FB60D7E9022341465118396049464B418F
:103D50007B604FF000024FF00003D7E900AB5946FB
:103D6000CB00514643EA51735146CA0010461946EA
:103D7000034642469B18BB664B460A4642EB03038A
:103D8000FB66D7F8F4305B6800223B667A664FF03A
:103D900000024FF00003D7E9188949468B004146DD
:103DA00043EA917341468A00D7E91A01FCF75CFFA8
:103DB00002460B460D4BA3FB02135B09642101FB7A
:103DC00003F3D31A1B013233084AA2FB03235B0916
:103DD00003F00F02D7F8F4301B6822449A6000BF4A
:103DE00007F58077BD46BDE8B08F00BF1F85EB515A
:103DF00084B080B584B000AF786007F11C0080E823
:103E00000E003B6B012B22D17B689B6B23F480322D
:103E10007B689A637B68DB6823F4840323F04003A8
:103E20007A68D3607B68DB6823F440127B68DA60D1
:103E3000FB6C012B05D17B68DB6843F480127B6847
:103E4000DA60786800F0A2FA0346FB731AE07B6838
:103E5000DB6843F040027B68DA60786800F096FA2D
:103E60000346FB733B6C002B06D17B689B6B43F4D2
:103E700080327B689A6305E07B689B6B23F4803219
:103E80007B689A63BB6A012B0BD17B689B6843F00C
:103E900006027B689A607B689B6843F020027B681F
:103EA0009A60FB7B18461037BD46BDE8804004B0E1
:103EB000704780B483B000AF78607B689B6823F064
:103EC00001027B689A60002318460C37BD465DF8F6
:103ED000047B704780B584B000AF78600B46FB7000
:103EE0000023FB607B68DB6823F0C0427B68DA60FC
:103EF000FB78012B15D17B68DB6843F000527B68AF
:103F0000DA600120FEF7ECF9FB680133FB607868AA
:103F100000F02EFA0346012B1ED0FB68312BF0D99E
:103F20001AE0FB78002B15D17B68DB6843F08042F8
:103F30007B68DA600120FEF7D3F9FB680133FB6090
:103F4000786800F015FA0346002B05D0FB68312B8A
:103F5000F0D901E0012305E0FB68322B01D10123F8
:103F600000E0002318461037BD4680BD84B080B500
:103F700086B000AF786007F1240080E80E000023CF
:103F8000FB757B68FB6000233B6109E07A683B6955
:103F900040339B00134400225A603B6901333B616C
:103FA0003B690E2BF2D9FB6C002B1CD1FB6803F58F
:103FB00000635B68FA6802F5006243F00203536035
:103FC0007B689B6B43F400127B689A637B689B6BF6
:103FD00023F400227B689A637B689B6B23F4802226
:103FE0007B689A630BE07B689B6B23F400127B6811
:103FF0009A637B689B6B43F400227B689A63FB683F
:1040000003F560631A4600231360FB6803F5006341
:104010001946FB6803F500631A460B681360BB6B17
:10402000012B0CD1FB6A002B04D10021786800F031
:1040300065F908E00121786800F060F903E00321E8
:10404000786800F05BF91021786800F0F3F8034617
:10405000002B01D00123FB75786800F01FF903469F
:10406000002B01D00123FB75FB6803F500631A46A2
:1040700000231361FB6803F500631A4600235361B4
:10408000FB6803F500631A460023D36100233B61FC
:1040900043E03B695A01FB68134403F510631B6856
:1040A00003F00043B3F1004F18D13B69002B0AD154
:1040B0003B695A01FB68134403F510631A464FF03D
:1040C0000063136013E03B695A01FB68134403F576
:1040D00010631A464FF09043136008E03B695A01A1
:1040E000FB68134403F510631A46002313603B6911
:1040F0005A01FB68134403F510631A460023136149
:104100003B695A01FB68134403F510631A464FF6E6
:104110007F3393603B6901333B617B6A3A699A4222
:10412000B7D300233B6143E03B695A01FB6813446A
:1041300003F530631B6803F00043B3F1004F18D15F
:104140003B69002B0AD13B695A01FB68134403F514
:1041500030631A464FF00063136013E03B695A0165
:10416000FB68134403F530631A464FF09043136025
:1041700008E03B695A01FB68134403F530631A46B3
:10418000002313603B695A01FB68134403F5306355
:104190001A46002313613B695A01FB68134403F577
:1041A00030631A464FF67F3393603B6901333B61BE
:1041B0007B6A3A699A42B7D3FB6803F500631B69CF
:1041C000FA6802F5006223F4807313617B680022B1
:1041D0009A617B686FF080425A613B6B002B05D17E
:1041E0007B689B6943F010027B689A617B689A69DF
:1041F0000F4B13437A689361FB6B002B05D07B68F0
:104200009B6943F008027B689A61FB6C012B07D124
:104210007B689B6943F0804343F004037A689361B1
:10422000FB7D18461837BD46BDE8804004B0704796
:1042300000383C8080B485B000AF786039600023DE
:10424000FB60FB680133FB60FB68134A934201D9B2
:1042500003231BE07B681B69002BF2DA0023FB6061
:104260003B689B0143F020027B681A61FB680133C5
:10427000FB60FB68084A934201D9032306E07B6890
:104280001B6903F02003202BF0D0002318461437BD
:10429000BD465DF8047B7047400D030080B485B0D7
:1042A00000AF78600023FB60FB680133FB60FB68B4
:1042B000114A934201D9032318E07B681B69002B44
:1042C000F2DA0023FB607B6810221A61FB6801337D
:1042D000FB60FB68084A934201D9032306E07B6830
:1042E0001B6903F01003102BF0D00023184614377D
:1042F000BD465DF8047B7047400D030080B485B077
:1043000000AF78600B46FB707B68FB60FB6803F5D1
:1043100000631A68FB78F96801F5006113430B60CC
:10432000002318461437BD465DF8047B704780B4FF
:1043300085B000AF78607B68FB60FB6803F5606365
:104340001B68FA6802F5606223F003031360FB68E0
:1043500003F500635B68FA6802F5006243F002034C
:104360005360002318461437BD465DF8047B704740
:1043700080B483B000AF78607B685B6903F00103B1
:1043800018460C37BD465DF8047B704780B485B095
:1043900000AF78600023FB60FB680133FB60FB68C3
:1043A000134A934201D903231BE07B681B69002B4E
:1043B000F2DA0023FB607B681B6943F001027B6833
:1043C0001A61FB680133FB60FB68094A934201D91B
:1043D000032306E07B681B6903F00103012BF0D087
:1043E000002318461437BD465DF8047B704700BFB4
:1043F000400D0300014B1868704700BF34000020D7
:1044000070B50D4D0D4C641BA4100026A64209D1B9
:104410000B4D0C4C02F038FD641BA4100026A64284
:1044200005D170BD55F8043B98470136EEE755F8C5
:10443000043B98470136F2E79C7A00089C7A000812
:104440009C7A0008A07A000802440346934200D1F7
:10445000704703F8011BF9E72DE9FF4755EC104BB6
:10446000002D0E4619462B46BBBF05F100431D46E5
:1044700000232D230B700D9BDDF830A0914623F017
:104480002008BCBF22461446B8F1460F05D0B8F14B
:10449000450F00D10136022100E0032103AB019357
:1044A00002AB009345EC104B5346324600F0CCFC77
:1044B000B8F1470F074602D119F0010F22D0B8F129
:1044C000460F07EB060910D13B78302B0AD10022AA
:1044D000002320462946FCF707FB18B9C6F1010660
:1044E000CAF80060DAF80030994400220023204620
:1044F0002946FCF7F9FA08B1CDF80C903022039B5D
:104500004B4507D3039B0E9ADB1B3846136004B060
:10451000BDE8F087591C03911A70F0E7F7B5034620
:104520000029B8BF494203F8022BB4BF2D222B2229
:10453000092942702ADD0DF10704A4460A27A64680
:104540000A4691FBF7F607FB16153035632A04F18E
:10455000FF340EF8015C3146F1DC3031AEF102057A
:1045600004F8011C441C294661450AD30DF10902D7
:10457000A2EB0E02654588BF00221344181A03B04F
:10458000F0BD11F8012B04F8012FEDE73023303195
:104590008370C170031DF1E72DE9F04F2DED028B03
:1045A0008DB00C46DDF8608016461F46054601F0CA
:1045B00039FAD0F800A05046FBF71AFE00230A9300
:1045C00023680593D8F8003094F818B0073323F027
:1045D000070303F10802C8F80020D3E90023C4E967
:1045E0001223D4E9128929F000430793CDF81880EB
:1045F00008EE100A9F4BDDE906014FF0FF32FCF791
:10460000A5FA88BBDDE906019A4B4FF0FF32FCF7B3
:104610007FFA48BB0022002340464946FCF76EFA69
:1046200010B12D2384F84330934B9448BBF1470FCE
:1046300094BF9846804603232361059B23F0040220
:1046400022604FF00009009733460BAA2146284606
:1046500000F0D8F9013040F090804FF0FF300DB0FD
:10466000BDEC028BBDE8F08F42464B4640464946C2
:10467000FCF76CFA40B14B46002BBCBF2D2384F8ED
:1046800043307F487F4BD1E763680BF0DF0206922F
:104690005A1C3FD106236360059B616843F4806226
:1046A000002303930AABCDE901B309AB49EC108BAE
:1046B000009322600DF123032846FFF7CDFE069BF1
:1046C0000999472B804608D1C81C02DB63689942D0
:1046D00041DDABF1020B5FFA8BFBBBF1650F20D81C
:1046E00001395A4604F150000991FFF717FF0A9A61
:1046F0001318012A8146236102DC2268D20701D502
:10470000013323619DF82330002B9CD02D2384F8A6
:10471000433098E7069A472ABED1002BBCD101232B
:10472000B9E7BBF1660F18D1002963680BDD216181
:1047300013B92268D00702D501330B442361A16568
:104740004FF00009DEE713B92268D20701D5023322
:10475000F4E70123F2E74FF0670B0A9B994205DB70
:1047600023682161D807EAD54B1CE7E70029D4BFAD
:10477000C1F1020201221344E0E723685A0507D47D
:104780002369424631462846B84701302CD164E7B8
:10479000BBF1650F40F2E080D4E912010022002352
:1047A000FCF7A2F9002834D0374A012331462846C5
:1047B000B84701303FF451AFDDE909239A4202DBEB
:1047C0002368D80710D518EE103A524631462846CD
:1047D000B84701303FF441AF4FF0000804F11A0927
:1047E0000A9B013B434509DC23689B0700F10581D7
:1047F000E0680B9B9842B8BF184630E701234A4651
:1048000031462846B84701303FF427AF08F1010888
:10481000E6E7099B002B39DC1B4A01233146284679
:10482000B84701303FF419AFDDE90923134302D142
:104830002368D907D8D518EE103A52463146284693
:10484000B84701303FF409AF4FF0000904F11A0AEC
:10485000099B5B424B4501DC0A9B92E701235246D0
:1048600031462846B84701303FF4F7AE09F1010957
:10487000EEE700BFFFFFEF7FC0760008C4760008B8
:10488000CC760008C8760008D07600080A9AA36D96
:104890009A42A8BF1A46002A914637DC4FF0000B17
:1048A00029EAE97904F11A02A36D0593A3EB090340
:1048B0005B4533DCDDE909239A423BDB2368DA07F9
:1048C00038D40A9B059A09999A1AA3EB01099145D4
:1048D000A8BF9146B9F1000F35DC4FF0000829EA76
:1048E000E97904F11A0ADDE909239B1AA3EB09030C
:1048F00043457FF779AF0123524631462846B847F2
:1049000001303FF4AAAE08F10108ECE71346314646
:1049100042462846B8470130C0D19EE601233146C1
:1049200028460592B84701303FF497AE059A0BF13F
:10493000010BB9E718EE103A524631462846B847FF
:104940000130BED189E6059A4B464244314628469D
:10495000B8470130C1D180E60A9A012A01DCDB07A1
:1049600038D50123424631462846B84701303FF446
:1049700074AE18EE103A524631462846B847013018
:104980003FF46BAED4E9120100220023FCF7ACF82F
:10499000D8B90A9B08F10102013B31462846B847C5
:1049A00001300ED159E60123524631462846B84718
:1049B00001303FF452AE08F101080A9B013B434528
:1049C000F1DC4B4604F15002DCE64FF0000804F144
:1049D0001A0AF2E701234246DFE701234A4631463D
:1049E0002846B84701303FF438AE08F10108E368C3
:1049F0000B995B1A4345F0DCFAE64FF0000804F12E
:104A00001909F4E72DE9F047164699468A680B69BB
:104A1000DDF820809342B8BF1346336091F84320FD
:104A200007460C460AB1013333602368990642BF3A
:104A3000336802333360256815F0060506D104F1AA
:104A4000190AE36832689B1AAB4226DC94F84320CB
:104A5000131E226818BF012392062BD404F14302CF
:104A600049463846C04701301ED02368E5683268A1
:104A700003F00603042B08BFAD1AA36822690CBF1C
:104A800025EAE57500259342C4BF9B1AED18002660
:104A90001A34B5421AD1002008E001235246494693
:104AA0003846C047013003D14FF0FF30BDE8F087F2
:104AB0000135C6E7E1185A1C302081F84300224432
:104AC00094F8451082F843100233C7E701232246C9
:104AD00049463846C0470130E6D00136D9E70000E4
:104AE0002DE9FF470F7E0C9D782F914680460C469E
:104AF0009A4601F1430207D8622F0AD8002F00F02E
:104B0000D880582F00F0A38004F1420584F8427049
:104B10003AE0A7F16303152BF6D801A151F823F071
:104B2000794B00088D4B0008094B0008094B000821
:104B3000094B0008094B00088D4B0008094B000881
:104B4000094B0008094B0008094B0008994C000864
:104B5000BD4B00087B4C0008094B0008094B0008BE
:104B6000BB4C0008094B0008BD4B0008094B00086E
:104B7000094B0008834C00082B681A1D1B682A602B
:104B800004F1420584F842300123A3E0206829683B
:104B9000060601F104030AD50E682B60002E03DA25
:104BA0002D23764284F843305E480A2319E00E68CC
:104BB0002B6010F0400F18BF36B2EFE72B6820686B
:104BC000191D2960010601D51E6802E04606FBD5C5
:104BD0001E8854486F2F0CBF08230A23002184F835
:104BE00043106568A560002DA2BF216821F0040173
:104BF00021600EB9002D4DD01546B6FBF3F103FB35
:104C00001167C75D05F8017D3746BB420E46F4D9F2
:104C1000082B0BD12368DE0708D523696168994208
:104C2000DEBF302305F8013C05F1FF35521B226140
:104C3000CDF800A04B4603AA21464046FFF7E2FE0E
:104C400001304CD14FF0FF3004B0BDE8F08735485B
:104C500081F845702968236851F8046B29601D06A6
:104C600014D5DF0744BF43F0200323601EB9236837
:104C700023F0200323601023B0E7236843F02003D0
:104C800023607823284884F84530E3E7590648BF75
:104C9000B6B2E6E71546BBE72B6826686169181DC2
:104CA000286035061B6801D5196002E07006FBD547
:104CB0001980002323611546BAE72B681A1D2A6064
:104CC0001D68626800212846FBF79AFA08B1401B6C
:104CD000606063682361002384F84330A8E7236998
:104CE0002A4649464046D0470130ABD023689B074F
:104CF00013D4E068039B9842B8BF1846A4E7012389
:104D0000324649464046D04701309BD00135E368E2
:104D100003995B1AAB42F2DCEBE7002504F11906BC
:104D2000F5E700BFD2760008E37600082DE9F74FDB
:104D300003690C69A3420746C0F28180013C01F17E
:104D4000140800F1140505EB8403019358F824308E
:104D500055F8242001339A424FEA840B08EB84096A
:104D6000B2FBF3F631D34FF0000E4046AC46F246AC
:104D700050F8042B93B206FB03E34FEA134E9BB2A9
:104D8000AAEB0303DCF800A0120C13FA8AF306FB6B
:104D900002E20093009B4FEA124E92B2C2EB1A421B
:104DA00002EB2342BDF80030814543EA02434CF850
:104DB000043B4FEA224ADBD255F80B302BB9019B5A
:104DC000043B9D421A462ED33C61384601F0C6F89A
:104DD000002824DB013628464FF0000C58F8042B3D
:104DE000D0F800E093B2ACEB0303120C13FA8EF38D
:104DF000C2EB1E4202EB23429BB243EA0243C1458F
:104E000040F8043B4FEA224CE8D255F8242005EB49
:104E1000840322B9043B9D421A460AD33C613046C2
:104E200003B0BDE8F08F1268043B002ACCD1013CEE
:104E3000C7E71268043B002AF0D1013CEBE70020F1
:104E4000EEE70000000000002DE9F04F2DED048B8F
:104E500057EC106B93B0456ADDF88080069110EE38
:104E600010AA044609920C93BB4675B9102000F0B5
:104E7000DDFD0246606220B9A74BEA21A74801F098
:104E800075FAC0E901550560C560636A196851B1DA
:104E90005A684A60012393408B60204600F01CFE54
:104EA000636A00221A603B1EAABF002323F0004B56
:104EB000C8F800309A4BBCBF0122C8F8002033EA82
:104EC0000B031BD10C9A42F20F731360CBF3130345
:104ED000334300F09285219B63B9924B22E0924BC1
:104EE00001930833219A1360019813B0BDEC048B31
:104EF000BDE8F08F8B4B01930333F3E700220023CF
:104F000050465946FBF7F0FD4BEC19AB804658B1C3
:104F10000C9A01231360219B002B00F06B858348C2
:104F20001860431E0193DFE74BEC10AB10AA11A9E8
:104F3000204601F0B9F8CBF30A5508EE100A002D0F
:104F400000F0848019EE903AC3F3130343F07F57C7
:104F5000564647F44017A5F2FF35CDF83880744B1C
:104F6000002230463946FBF79FF965A3D3E90023B9
:104F7000FBF752FB64A3D3E90023FBF797F906463E
:104F800028460F46FBF7DEFA61A3D3E90023FBF7BF
:104F900043FB02460B4630463946FBF787F9064687
:104FA0000F46FBF7E9FD002200900023304639460A
:104FB000FBF7A4FD50B10098FBF7C4FA32463B461C
:104FC000FBF792FD10B9009B013B0093009B162B51
:104FD0005AD8009A574B03EBC203D3E9002351EC94
:104FE000190BFBF78BFD002850D0009B013B009371
:104FF00000230B93109B5D1B6B1E059345BFC5F1F2
:1050000001030493002300234CBF05930493009BEA
:10501000002B3DDB059B009A0A9213440593002365
:105020000793069B092B00F28980052BC4BF043B24
:105030000693069BA3F10203CCBF00250125032B99
:1050400000F28780DFE803F02D3A3859DDE910538C
:105050001D4405F23243202BC1BFC3F1400305F2CA
:1050600012400BFA03F326FA00F0DABFC3F1200373
:1050700006FA03F01843FBF755FA01230646A1F19F
:10508000F877013D0E936AE70123B2E70B90B1E791
:10509000049B009A9B1A04935342079300230A939C
:1050A000BFE700230893099B002B55DC0123CDE9C2
:1050B00002331A4609920CE00123F3E70023099A10
:1050C0000893009B134402930133012B0393B8BF51
:1050D0000123606A00224260042202F114069E420B
:1050E00041683DD9204600F0B7FC019000283BD133
:1050F000114B02464FF4D571C0E60123DFE700BF34
:1051000061436F63A787D23FB3C8608B288AC63FCD
:10511000FB799F501344D33F0177000818770008AC
:105120000000F07FFD760008F4760008D1760008D4
:105130000000F83F08780008737700080125002375
:10514000069308954FF0FF33CDE902330022122376
:10515000B0E701230893F5E7099BCDE90233B8E7EF
:10516000013141605200B8E7636A019A1A60039BFB
:105170000E2B00F29D80002D00F09A80009B002BEA
:1051800032DDB74A03F00F0302EBC303D3E9008912
:10519000009BD8054FEA231716D5B24B51EC190BDB
:1051A000D3E90823FBF762FB07F00F0782468B4623
:1051B0000325AC4E57B942464B4650465946FBF77D
:1051C00055FB82468B4628E00225F2E7F90708D511
:1051D00040464946D6E90023FBF71EFA01358046D2
:1051E00089467F100836E5E700F09B80009B9D4FC5
:1051F0005E429B4B06F00F0203EBC203D3E9002390
:1052000051EC190BFBF708FA361182468B46002346
:105210000225002E7AD1002BD3D10B9B002B00F05E
:105220008280914B002250465946FBF767FC0028CC
:1052300079D0039B002B76D0029B002B36DD009BA0
:10524000504659465F1E0022884BFBF7E5F9029E47
:1052500082468B4601352846FBF774F952465B4679
:10526000FBF7DAF9824B0022FBF720F8D046D9464B
:105270008246A1F1507B002E58D17E4B0022404641
:105280004946FBF711F852465B4680468946FBF7D4
:1052900053FC002840F0958252460BF100434046F3
:1052A0004946FBF72BFC002840F089825BEC19ABE8
:1052B000119B002BC0F24881009A0E2A00F3448112
:1052C000674B03EBC203D3E90089099B002B80F2F3
:1052D000D580039B002B00F3D18040F06F82654B9B
:1052E000002240464946FBF797F952465B46FBF7DA
:1052F00019FC039E3746002840F04582019D31236A
:1053000005F8013B009B0133009340E2F20705D50D
:10531000D7E90023FBF780F9013501237610083720
:1053200077E7022579E7009F039E94E701994C4BAC
:1053300031440D91089903EBC60353E90223002978
:1053400043D04D490020FBF791FA52465B46FAF7ED
:10535000ABFF019D82468B4649464046FBF70CFC5D
:105360000646FBF7EFF802460B4640464946FAF779
:105370009BFF303605F8016B52465B4680468946F6
:10538000FBF7BCFB002863D142464B463649002060
:10539000FAF78AFF52465B46FBF7B0FB002840F065
:1053A000B5800D9B9D4281D0304B0022504659461E
:1053B000FBF732F92D4B82468B4640464946002288
:1053C000FBF72AF980468946C6E750465946FBF75F
:1053D00023F90D9B019D0F9382468B46494640461B
:1053E000FBF7CAFB0646FBF7ADF8303602460B4624
:1053F00040464946FAF758FF05F8016B0D9B9D4260
:10540000804689464FF0000224D11B4B5046594636
:10541000FAF74CFF02460B4640464946FBF78CFB29
:10542000002873D152465B4613490020FAF73CFF2F
:1054300002460B4640464946FBF760FB00283FF416
:1054400035AF0F9D6B1E0F9315F8013C302BF8D034
:10545000009749E0054BFBF7DFF880468946BDE73A
:1054600008780008E07700080000F03F00002440C2
:1054700000001C40000014400000E03F019D564623
:105480005F4642464B4630463946FBF7EFF9FBF79D
:1054900073FB8246FBF756F842464B46FBF7BCF8D7
:1054A00002460B46304639460AF13006FAF7FCFE52
:1054B00005F8016B019E039FAE1BB74202460B46E7
:1054C00035D1FAF7F3FE42464B4606460F46FBF748
:1054D00033FBD0B942464B4630463946FBF704FB16
:1054E00010B11AF0010F10D1204618EE101A00F07A
:1054F000F3FA002300982B700C9B01301860219B5D
:10550000002B3FF4F1AC1D60EEE4009F2B461D46DE
:1055100013F8012D392A06D1019A9A42F7D101993F
:10552000302201370A701A7801321A7090E7A64BC0
:105530000022FBF771F80022002306460F46FBF716
:10554000D3FA00289DD0CFE7089A002A00F0D78030
:10555000069A012A00F3BA800E9A002A00F0B2805F
:1055600003F23343079E049D049A1A440492059A59
:1055700001211A442046059200F066FB0746002DE3
:105580000CDD059B002B09DDAB42049AA8BF2B461E
:10559000D21A0492059AED1AD31A0593079B1BB3EE
:1055A000089B002B00F0AF80002E13DD39463246F9
:1055B000204600F009FC18EE102A01460746204656
:1055C00000F058FB18EE101A8046204600F084FACE
:1055D00008EE108A079B9A1B06D018EE101A204678
:1055E00000F0F2FB08EE100A0121204600F02CFB2F
:1055F0000A9B002B064640F388801A460146204647
:1056000000F0E2FB069B012B064640F381804FF041
:105610000008336906EB8303186900F0C5FAC0F18E
:105620002000059B184410F01F0000F09280C0F18C
:105630002003042B40F38A80C0F11C00049B034428
:105640000493059B034405440593049B002B07DD4D
:1056500018EE101A1A46204600F010FC08EE100A48
:10566000059B002B05DD31461A46204600F006FC5E
:1056700006460B9B002B6ED018EE100A314600F048
:105680006DFC002867DA009B013B18EE101A0093AE
:105690000A220023204600F041FA089B08EE100A77
:1056A000002B00F0B181002339460A22204600F089
:1056B00035FA029B002B074600F38E80069B022BD7
:1056C00051DC89E0109BC3F136034BE7039B5E1E60
:1056D000079BB342BFBF079B0796F21A0A9BB6BF50
:1056E0009B189E1B0A93039BB8BF0026002BB7BFD5
:1056F000DDE90323DDE903359D1A002334E7079E26
:10570000049D089F3BE7079A67E7069B012B18DC7F
:10571000BAF1000F15D1CBF3130393B92BF000436B
:105720001B0D1B0583B1049B01330493059B0133BF
:1057300005934FF001080A9B002B7FF46AAF01200C
:105740006FE74FF00008F6E79846F4E73FF47DAFC7
:1057500018461C3072E7039B002B37DC069B022B9C
:1057600034DD039B0293029B6BB931460522204630
:1057700000F0D4F90146064618EE100A00F0EEFBE0
:1057800000283FF7BBAD099B019DDB4300934FF021
:1057900000083146204600F09FF9002F3FF4A4AEE8
:1057A000B8F1000F05D0B84503D04146204600F0BF
:1057B00093F93946204600F08FF995E600263746E2
:1057C000E1E70097374699E500002440089B002B4D
:1057D00000F0CA80039B0293002D05DD39462A465E
:1057E000204600F04BFB0746B8F1000F5BD079680C
:1057F000204600F031F9054628B9874B024640F2B1
:10580000EA21FFF73BBB3A690232920007F10C0133
:105810000C3000F013F901222946204600F02EFB3F
:10582000019B03F10109DDE90123134405930AF00B
:105830000103B84604930746314618EE100AFFF7F5
:1058400075FA4146029000F1300A18EE100A00F095
:1058500085FB3A4603903146204600F09BFBC26828
:1058600009F1FF3B054602BB014618EE100A00F0A5
:1058700075FB024629462046079200F02DF9DDE926
:10588000063243EA0201049B0B434D460FD1BAF1A5
:10589000390F2AD0039B002B02DD029B03F1310A52
:1058A0008BF800A075E73846BAE70122E2E7039BD0
:1058B000002B04DB06990B4304990B4322D1002AE9
:1058C000EEDD18EE101A0122204600F0D7FA31461C
:1058D00008EE100A00F042FB002803DCE0D11AF0C9
:1058E000010FDDD0BAF1390FD7D139238BF8003051
:1058F0002B461D46013B15F8012C392A71D0013287
:105900001A7046E7002A07DDBAF1390FEDD00AF127
:1059100001038BF800303CE7059B09F801AC994581
:1059200047D018EE101A00230A22204600F0F6F89D
:10593000B84508EE100A4FF000034FF00A02414646
:10594000204606D100F0EAF88046074609F1010931
:1059500072E700F0E3F83946804600230A22204629
:1059600000F0DCF80746F1E7039B0293019D18EE77
:10597000100A3146FFF7DAF900F1300A019B05F809
:1059800001ABEA1A029B934209DD18EE101A0023BC
:105990000A22204600F0C2F808EE100AE7E7029B50
:1059A000002BC8BF1D46019BD8BF01251D444FF0E9
:1059B000000818EE101A0122204600F05FFA314666
:1059C00008EE100A00F0CAFA002891DC02D11AF0A1
:1059D000010F8DD12B461D4613F8012D302AFAD028
:1059E000D7E6019A9A4284D1009B01330093312378
:1059F0001370CEE6094BFFF795BA219B002B7FF47D
:105A00006EAA074BFFF78EBA029B002BAEDC069BFB
:105A1000022B3FF7A8AEA9E773770008D0760008FD
:105A2000F47600080048704788010020024B0146C8
:105A3000186800F017BC00BF340000200A449142EF
:105A400000F1FF3300D1704710B511F8014B03F896
:105A5000014F9142F9D110BD70B5466A04460D461A
:105A600076B91020FFF7E2FF0246606220B9184BBA
:105A70001848662100F07AFCC0E901660660C6603D
:105A8000666AF36883B1636ADB6853F82500B8B9C6
:105A9000012101FA05F6721D9200204600F060FB1C
:105AA00060B1C0E901560EE021220421204600F039
:105AB00057FB636AF060DB68002BE4D1002070BD07
:105AC000026843F825200023C0E90333F7E700BF4D
:105AD000017700088477000870B5466A05460C46D1
